:020000040000FA
:060000000A128A110C280F
:10000800FE00030EF2000A08F3000A128A11B92949
:100018000A128A110F2883133530FD000230FE00C2
:100028004330FF002B3084000A128A111C220A1266
:100038008A11B501B601B701B801F601F701F80157
:10004800F90183010A128A115E29643083120313AD
:10005800A0000030A1007908A800A9012808A20082
:100068002908A3000A128A119A200A128A118312F7
:1000780003132008AA002A08B8006430A000003042
:10008800A1007908A800A9012808A2002908A3004E
:100098000A128A1103210A128A11831203132008F3
:1000A800AA002A08F8000A30A0000030A100780849
:1000B800A800A9012808A2002908A3000A128A1189
:1000C8009A200A128A11831203132008AA002A0808
:1000D800F6000A30A0000030A1007908A800A901A4
:1000E8002808A2002908A3000A128A1103210A126B
:1000F8008A11831203132008AA002A08F700770838
:100108002B3E840083130008A8002808B70076084F
:100118002B3E84000008A8002808B60038082B3EAB
:1001280084000008A8002808B500080083120313FB
:10013800A501A11FA028A128A828A009A109A00AF3
:100148000319A10AA501A50AA31FAB28AC28B52845
:10015800A209A309A20A0319A30A0130F40074082A
:10016800A506A601A701200821040319BC28BD285B
:10017800F428A401A40ACB2801300310A00DA10D76
:10018800FF3E031DC1280130F4007408A407A11F15
:10019800CE28CF28C02801300310A60DA70DFF3E9A
:1001A800031DD02821082302031DDC282008220271
:1001B800031CDF28E028E7282008A2022108031CE6
:1001C800A303A302261401300310A10CA00CFF3EC8
:1001D800031DE8280130A402031DF328F428CF28C2
:1001E80025080319F828F928FE28A609A709A60A48
:1001F8000319A70A2708A1002608A00008008312EF
:100208000313A501A31F09290A291129A209A30972
:10021800A20A0319A30AA501A50AA11F14291529D1
:100228001A29A009A109A00A0319A10A2008210472
:1002380003191F2920294F29A401A40A2E290130B6
:100248000310A00DA10DFF3E031D24290130F40069
:100258007408A407A11F3129322923292108230260
:10026800031D382920082202031C3B293C29422966
:100278002008A2022108031CA303A30201300310D3
:10028800A10CA00CFF3E031D43290130A402031D4D
:100298004E294F2932292508031953295429592948
:1002A800A209A309A20A0319A30A2308A100220884
:1002B800A00008000A128A1103220A128A11831266
:1002C80003139F14831203139F186B296C29662943
:1002D8001F0CF500750C0F39003A031D7429752998
:1002E8007A291F08C33904389F007C29C3309F0529
:1002F8001030F500F50B7E290000831203139F14BC
:100308000A128A1129200A128A1166290A128A11E8
:100318000C280330831603178800890103308316DD
:1003280003138500870188018901F830860083124C
:10033800031386018501870188010130890083162E
:1003480003139F131F129F12831203131F083F39B1
:1003580080389F00C3309F051030F400F40BB22999
:100368000000831203131F1408000B1DBC29BD29AC
:10037800C2290A128A11E0210A128A118312031370
:100388000C1FC729C829D9291F0CF100710C0F3976
:10039800003A031DD029D129D4291E088700D8295D
:1003A8001E08F1007108F9000C1373088A00720E18
:1003B8008300FE0E7E0E09008312031389010608CE
:1003C800031DE729E829F0293708880009140130B6
:1003D800F00070088607FF290603031DF429F52994
:1003E800F929360888008914EB2935088800091589
:1003F8000608023E8600EB3081000B1108000A1245
:100408008A114D220A128A110A128A118D210A12A2
:100418008A110A128A1138220A128A110A128A11BA
:100428002B220A128A1108007E088A007F0882009F
:100438000A128A1118220A128A118000840A0408F2
:100448007D0603190034FF0A0319FE0A1C2A8316C5
:10045800031381128111011581140114EB308312E9
:10046800031381000B1108008B170B178316031356
:100478000C17831203130C138B160B1108003F344F
:1004880006345B344F3466346D347D3407347F343E
:100498006734831603130F178F160F120F140800F3
:04400E00C430FF3F7C
:00000001FF
